:020000040800F2
:10000000E8220020691900089D0300089F030008EA
:10001000A3030008A7030008AB03000800000000CA
:10002000000000000000000000000000AF03000816
:10003000B103000800000000B3030008B503000886
:10004000E1090008831900088319000883190008D2
:100050008319000883190008BF08000883190008E5
:100060008319000883190008831900088319000800
:1000700083190008831900088319000883190008F0
:1000800083190008831900088319000883190008E0
:100090001D4200088319000883190008831900080D
:1000A00083190008831900088319000883190008C0
:1000B00003030008B703000821170008831900088C
:1000C00083190008831900088319000883190008A0
:1000D00083190008DF180008831900088319000835
:1000E000F9080008831900082542000800F002F80A
:1000F00000F062F80AA090E8000C82448344AAF160
:100100000107DA4501D100F057F8AFF2090EBAE85D
:100110000F0013F0010F18BFFB1A43F0010318473B
:10012000E8710000087200000A444FF0000C10F85B
:10013000013B13F0070408BF10F8014B1D1108BF65
:1001400010F8015B641E05D010F8016B641E01F805
:10015000016BF9D113F0080F1EBF10F8014BAD1C55
:100160000C1B09D16D1E58BF01F801CBFAD505E073
:1001700014F8016B01F8016B6D1EF9D59142D6D3CD
:10018000704700000023002400250026103A28BFF5
:1001900078C1FBD8520728BF30C148BF0B607047F9
:1001A000642905F0CB86732906F091800020704702
:1001B0001FB51FBD10B510BD06F0DAF81146FFF7E8
:1001C000F7FF00F060F806F0F8F803B4FFF7F2FF6D
:1001D00003BC01F029FB000010B5044601210420F6
:1001E00002F01AF83CB15E48006880B220F00200CC
:1001F0005B49086014E05A48006880B240F0020091
:10020000574908605748006820F47F205549086026
:100210000846006840F44C300860002052490860ED
:1002200010BD1FB50121084602F003F8C720ADF844
:10023000080048F69F40ADF804000020ADF80A0021
:10024000ADF8060001A94FF0804002F01DF901222F
:100250001146900702F08FFC0121880702F04AFF47
:100260001C208DF8000003208DF801008DF802009D
:1002700001208DF80300684601F09BFB01218807EF
:1002800002F05EFC1FBD00F03AF9482001F060FA70
:1002900001F0B4FA4FF47A3001F0D5FA00F0B0F979
:1002A00000F019FC00F093FC00F073FC2FA2002179
:1002B000084600F01CFF2FA20221002000F017FFCB
:1002C00000F067FC642001F05DFA0020FFF784FF76
:1002D0004FF4167001F056FA0120FFF77DFF03F08E
:1002E000DBFDFFF79EFF01F0ABF84FF4807024496F
:1002F0000861C82001F0F8F9642001F043FA00BF5A
:10030000FEE770B50121880702F0E3FE18B31D492E
:10031000C98808B206F08EF906464FF08E4106F005
:10032000ABF80546184906F09DF9044606F066F953
:1003300016490860084616A10268174805F09AFD9C
:10034000154805F0D3FE04462146134803F0C9FDC5
:1003500000200C4948800121880702F0CBFE70BDC7
:10036000405C004004080140B0012142414437365E
:1003700030360000556E69743A316D560000000049
:1003800000100140F20E002000401C47B40A00207B
:100390004125303564000000D40A0020704700BFBA
:1003A000FEE700BFFEE700BFFEE700BFFEE77047C5
:1003B00070477047704710B50121134802F086FE60
:1003C00012480068401C114908601148006828B1B3
:1003D00010480068401C0F49086002E000200D49E9
:1003E00008600D480088401C0B49088008460088BA
:1003F0000A2807D109480068401C08490860002005
:100400000549088010BD0000000400401C000020C9
:1004100034000020280000200000002004000020FC
:100420000CB50020019000906C48006840F48030CA
:100430006A49086000BF6948006800F40030009015
:100440000198401C0190009818B90198B0F5A06F70
:10045000F1D16248006800F4003010B10120009032
:1004600001E0002000900098012843D15C4800681A
:1004700040F010005A4908600846006820F0030068
:1004800008600846006840F0020008605348406871
:10049000524948600846406848600846406840F451
:1004A000806048600846406820F47C104860084638
:1004B000406840F4E81048600846006840F08070EA
:1004C000086000BF4548006800F000700028F9D0BF
:1004D0004248406820F003004049486008464068B0
:1004E00040F00200486000BF3C48406800F00C004B
:1004F0000828F9D10CBD10B5FFF792FF10BD10B55B
:100500003648006840F001003449086008464068F9
:10051000344908403149486008460068324908407B
:100520002E4908600846006820F4802008600846CC
:10053000406820F4FE0048604FF41F008860FFF719
:10054000DAFF4FF000602949086010BD10B50021A6
:1005500000200022214B5B6803F00C0121B104292B
:1005600006D0082928D107E0214B224C236027E040
:100570001F4B204C236023E0184B5B6803F4701082
:10058000164B5B6803F48032022303EB904022B9E0
:10059000194B4343174C23600DE0104B5B6803F489
:1005A000003323B1144B4343124C236003E0104B40
:1005B0004343104C236003E00D4B0E4C236000BFFF
:1005C00000BF064B5B68C3F303130C4CE15C094BA3
:1005D0001B68CB40074C236010BD00000010024098
:1005E000002002400000FFF8FFFFF6FE08ED00E0EB
:1005F00000127A000800002000093D000C000020D5
:1006000000B585B00121082001F006FE012102207D
:1006100001F00FFE48208DF813004FF47840ADF83C
:10062000100001208DF8120004A9624801F018FBA7
:10063000614801F055FE4720ADF8040040F2E73074
:10064000ADF808000020ADF80A00ADF8060001A9D9
:10065000594801F019FF01224121574802F08BFA55
:100660000121554802F06CFA1D208DF80000012090
:100670008DF803008DF801008DF80200684601F046
:1006800098F905B000BD4B4908310968C1F3CF2185
:1006900061F01F00704700B5FFF7F5FFC2434749FF
:1006A000096882EA01001040454908604348026039
:1006B0004448006820B9444800680A30434908604B
:1006C0003F48006810B101203E4908603D4800687D
:1006D00090B33D4800683D49096888422CD93A48A2
:1006E000006810F10A0F27D234480068042812D09D
:1006F00004DC012807D0022819D108E008280ED010
:10070000102814D10FE001203149086013E00220C5
:100710002F4908600FE003202D4908600BE00420FA
:100720002B49086007E005202949086003E0002004
:100730002749086000BF00BF26480068B0F57A7FEF
:100740002BD340F29E20234908601C4800680428EF
:1007500012D004DC012807D0022819D108E00828AB
:100760000ED0102814D10FE00B201949086013E0B7
:100770000C20174908600FE00D20154908600BE0B8
:100780000E201349086007E00F201149086003E0BC
:1007900000200F49086000BF00BF0D48006800BD81
:1007A0000B48006820B1002006490860084908602D
:1007B00070470000000C014000040040340000209D
:1007C00030000020380000201C0000202C000020F9
:1007D00020000020280000201FB501215A4801F008
:1007E00010FB0121052001F017FD4FF42040ADF86A
:1007F0000C0048208DF80F0003A9544801F030FA8E
:100800000120ADF80C0028208DF80F0003A94F48F7
:1008100001F026FA0D21002001F038FB4FF40050C2
:10082000019000208DF808000C208DF809000120AF
:100830008DF80A0001A801F033F90F21002001F022
:1008400025FB4FF40040019000208DF808000C209B
:100850008DF8090001208DF80A0001A801F020F9A7
:100860000021084601F012FB0120019000208DF8C4
:10087000080008208DF8090001208DF80A0001A861
:1008800001F00EF928208DF8000002208DF80100FB
:1008900001208DF802008DF80300684601F089F808
:1008A00006208DF8000002208DF801008DF802006E
:1008B00001208DF80300684601F07BF81FBD10B5DC
:1008C0000A2000F05FFF012001F050F980B12048BC
:1008D000006808B9012000E000201D4908601D489B
:1008E000D0F8880108B9012000E000201A4908600A
:1008F000012001F04CF910BD10B50A2000F042FFB4
:100900004FF4005001F032F940B11148006808B9C5
:10091000012000E000200E4908600CE04FF4004088
:1009200001F024F938B10C48006808B9012000E052
:100930000020094908604FF4005001F028F94FF4F5
:10094000004001F024F910BD000230000008014011
:1009500080012242008022428881224270B50546F1
:100960000C4645F2555001F0C9FA284601F0C9FA83
:10097000204601F0C9FA01F0CAFA01F0CDFA70BDC3
:1009800010B501F0C4FA10BD08B500208DF80000C4
:1009900002208DF8010003208DF80200684601F066
:1009A00008F808BD70B506460C4615460121C80278
:1009B00001F03FFC284602F0B0FD204602F0B6FDF3
:1009C000304602F0CEFD02F0D7FDFFF7DDFF02F06A
:1009D000BEFD70BD10B50446204602F0C2FD10BD3C
:1009E00010B57F2002F0B7FD02F0C6FD0448006894
:1009F00008B9012000E000200149086010BD000096
:100A00008881224208B50121282001F005FC4FF41D
:100A10007870ADF8000010208DF8030003208DF8E9
:100A200002006946FA4801F01BF94FF47871F84862
:100A300001F0C3F90420ADF800006946F54801F063
:100A40000FF90421F34801F0B8F908BD0022F24B78
:100A50001A60F24BC3F89C21002116E00022EE4BF5
:100A60000C331A6000F080021AB101221B1D1A60BB
:100A700003E00022E84B10331A600122E64B0C33EE
:100A80001A60420010464A1CD1B20829E6DB7047C2
:100A90000022E14B1A600122E04BC3F89C210021A7
:100AA00016E00022DC4B0C331A6000F080021AB111
:100AB00001221B1D1A6003E00022D74B10331A607D
:100AC0000122D54B0C331A60420010464A1CD1B2A9
:100AD0000829E6DB704710B5FFF794FF0020CE49E8
:100AE0000860CE49C1F89801642000F04BFE012057
:100AF000C949091D0860142000F044FEE220FFF7F8
:100B0000A5FF052000F03EFE2C20FFF79FFF0520EB
:100B100000F038FE2E20FFF799FF052000F032FE8E
:100B20002F20FFF793FF052000F02CFE2320FFF776
:100B30008DFF8120FFF78AFF2820FFF787FFA22083
:100B4000FFF784FFC820FFF781FFA020FFF77EFF9B
:100B50004020FFF77BFFAF20FFF778FF0120AF4970
:100B6000C1F8940110BD30B505460C460020AA49D5
:100B7000086000BF00BF05F1B000FFF767FF10215C
:100B800001EB1410FFF762FF04F00F00FFF75EFFA8
:100B900030BD30B50020A0490860002411E00021DC
:100BA0002046FFF7E0FF002507E09D4901EBC50166
:100BB000085DFFF76DFF681CC5B2802DF5DB601C7A
:100BC000C4B2082CEBDB01209349086030BD30B57E
:100BD00000209149086000240CE0002506E0002078
:100BE0008F4901EBC5010855681CC5B2802DF6DBA5
:100BF000601CC4B2082CF0DB012087490860FFF7B5
:100C0000C8FF30BDF0B5144600257F2801DC3F2920
:100C100000DDF0BD0023804F3B600B46CF1701EB9A
:100C20005777C7F3C702CF1701EB5777FF10A1EB38
:100C3000C707FEB20123B340DDB24CB1784B03EBE2
:100C4000C0039B5C2B43764F07EBC007BB5408E007
:100C5000734B03EBC0039B5CAB43714F07EBC007C7
:100C6000BB5401236C4F3B6000BFD2E72DE9F04736
:100C700006460F4690469946DDF820A034460CE023
:100C80003D4606E0524629462046FFF7BBFF681C5A
:100C9000C5B24D45F6DD601CC4B24445F0DDBDE88B
:100CA000F087F8B504460D4616461F4601203B4620
:100CB0002246294600902046FFF7D8FF01202B4608
:100CC0003246294600902046FFF7D0FF01203B46E0
:100CD0003246394600902046FFF7C8FF01203B46C8
:100CE0003246294600903046FFF7C0FFF8BDF0B508
:100CF000144600257F2802DDA0F17F03D8B23F29EA
:100D000002DDA1F13F03D9B20B46CF1701EB5777B4
:100D1000C7F3C702CF1701EB5777FF10A1EBC70747
:100D2000FEB20123B340DDB24CB13D4B03EBC00337
:100D30009B5C2B433A4F07EBC007BB5408E0384B92
:100D400003EBC0039B5CAB43354F07EBC007BB54C1
:100D5000F0BD38B505460C4632480078401C314994
:100D6000087031480078A84203D130480078A0428A
:100D70000DD0002000902D4800781030C3B22A48D2
:100D800002782A48017828480078FFF76FFF254845
:100D900000782749097888420ADA0120009004F196
:100DA0001000C3B22A4621462846FFF75FFF14E031
:100DB0001F4800781B490978B1EB400F0ADA002080
:100DC000009004F11000C3B22A4621462846FFF7DE
:100DD0004DFF02E0002013490870134805701348C6
:100DE000047038BD2DE9F04F80460C4615461E466E
:100DF000A346A5F12000C5B2002752E00C2E1BD15E
:100E000005EB45000B4901EB800010F8079018E056
:100E1000000C0140001401409481214200802142D5
:100E2000F20A00204409002046090020470900205A
:100E300045090020FC670008FE4800EB051010F88B
:100E400007904FF0000A26E009F0800028B1214603
:100E50004046099AFFF7D6FE09E0099808B9012033
:100E600000E00020024621464046FFF7CBFE4FEA55
:100E700049604FEA1069601CC4B2A4EB0B00B04299
:100E800005D15C4608F1010000F0FF0806E00AF118
:100E9000010000F0FF0ABAF1080FD5DB00BF781C93
:100EA000C7B2B742AADBBDE8F08F2DE9F04F074685
:100EB0000C4615461E46A3464FF0000931E095F852
:100EC00000804FF0000A23E008F0800028B132468D
:100ED00021463846FFF70BFF08E00EB9012000E07D
:100EE0000020024621463846FFF701FF4FEA4860DE
:100EF0004FEA1068601CC4B2A4EB0B00102803D1A9
:100F00005C46781CC7B206E00AF1010000F0FF0A57
:100F1000BAF1080FD8DB00BF6D1C09F1010000F029
:100F2000FF09B9F1200FCADBBDE8F08F2DE9F041D0
:100F300080460D4616461F467F2D01DDBDE8F08137
:100F40003F2E00DDFAE7002420E0387804EB04119E
:100F5000B94A12F81110884216D1787804EB0411BE
:100F600002EB4101497888420ED104EB041011468E
:100F700001EB4000821C434631462846FFF795FFAF
:100F800005F11000C5B203E0601CC4B23E2CDCD3F6
:100F900000BF00BFD2E7F8B507460C4615461E460F
:100FA00017E07A2C03DD002405F11000C5B23A2DBC
:100FB00004DD002004460546FFF709FE009732785D
:100FC000102329462046FFF70DFF04F10800C4B2A4
:100FD000761C30780028E4D1F8BDF8B507460C46F9
:100FE00015461E4617E07A2C03DD002405F110009B
:100FF000C5B23A2D04DD002004460546FFF7E7FDA3
:10100000009732780C2329462046FFF7EBFE04F1C7
:101010000800C4B2761C30780028E4D1F8BDF8B5D9
:1010200007460D4616461C461EE07A2D00DDF8BD2B
:101030003A2E00DDFBE720787F280ADD2346324682
:1010400029463846FFF772FFA41C05F11000C5B20F
:101050000AE000972278102331462846FFF7C2FEA7
:1010600005F10800C5B2641C20780028DDD100BF5E
:10107000DDE72DE9F04381460E4690461F467F2E60
:1010800001DDBDE8F083B8F13F0F00DDF9E7002492
:1010900028E0002521E0385D05EB0511664A12F8CD
:1010A0001110884217D1601C385C05EB051102EB6A
:1010B0004101497888420ED105EB0510114601EB3C
:1010C0004000821C4B4641463046FFF7EEFE06F1DB
:1010D0001000C6B203E0681CC5B23E2DDBD300BFD2
:1010E000A01CC4B2385D0028D3D100BFC9E770B5D9
:1010F00004460D461646E806020EE1B233460120CC
:10110000FFF78DFF70BDF0B504460D4616461F462D
:10111000E806020EE1B233463846FFF780FFF0BD25
:10112000F8B507460E461446002522E0605D80288B
:101130000CDB605D8038605500200090625DF00639
:10114000010E10233846FFF74DFE08E00120009005
:10115000625DF006010E10233846FFF743FE07F1EB
:101160000800C7B2782F02DD0027B01CC6B2681C89
:10117000C5B2605D0028D9D1F8BD2DE9FF4F83B01D
:10118000BDF81410BDF80C20881A002801DB0146B8
:1011900000E0414289B20291BDF81810BDF810205C
:1011A000881A002801DB014600E0414289B2019122
:1011B0004FF00009BDF80800BDF8041088420DDAB0
:1011C0004FF0010904A903A805F049F906A905A8EB
:1011D00005F045F901A902A805F041F9BDF8140090
:1011E000BDF80C10401A002801DD012001E04FF08D
:1011F000FF308246BDF81800BDF81010401A0028D4
:1012000001DD012001E04FF0FF308346BDF80C40C6
:10121000BDF81060BDF804004700BDF80400BDF83B
:101220000810401A4FEA4008BDF80400BDF8081045
:1012300004E00000706C00083C000020C1EB400599
:10124000B9F1000F11D00BE0002D01DA3D4401E0AF
:101250005E444544E1B2F0B2109AFFF7D3FC544427
:10126000BDF814008442EFD110E00BE0002D01DA4C
:101270003D4401E05E444544F1B2E0B2109AFFF70C
:10128000C1FC5444BDF814008442EFD107B0BDE85E
:10129000F08F2DE9F84305460E4617469846089C00
:1012A00033463A46314628460094FFF766FF4346E8
:1012B0002A46314628460094FFF75FFF43463A46E8
:1012C000414628460094FFF758FF43463A463146C8
:1012D00038460094FFF751FFBDE8F8832DE9FF4F32
:1012E00081B0834617469946DDF838A000243D4674
:1012F0007800C0F10306B9F1000F1FD01BE0A04633
:101300000AE01FFA88F3A2B2CDF800A0584602996D
:1013100005F063F808F10108A845F2DD002E04DAB3
:10132000042000FB0460861D04E0601B042101FB17
:1013300000666D1E641CAC42E1DD17E014E0ABB248
:10134000A2B2CDF800A05846029905F046F8002E4A
:1013500004DA042000FB0460861D04E0601B042105
:1013600001FB00666D1E641CAC42E8DD05B0BDE803
:10137000F08F000008B50121042000F05AFF4FF45F
:10138000E06000F011FB1E208DF8000000208DF8B9
:1013900001008DF8020001208DF80300684600F07E
:1013A00008FB08BD4FF48060E149486108610861AD
:1013B0000861086148617047012807D14021DC4A73
:1013C0005161202151611021116138E0022807D1BB
:1013D0004021D74A516120211161102151612EE035
:1013E000032807D14021D24A5161202111611021E7
:1013F000116124E0042807D14021CD4A1161202148
:101400005161102151611AE0052807D14021C84AD5
:101410001161202151611021116110E0062807D1CE
:101420004021C34A1161202111611021516106E060
:101430004021BF4A51612021516110215161704703
:1014400008B50121102000F0E7FE4FF40060ADF870
:10145000000003208DF8020010208DF8030069467B
:10146000B34800F0FDFB4FF48050ADF80000694632
:10147000AF4800F0F5FB4FF40070ADF800002820F5
:101480008DF803006946AA4800F0EAFB012110200C
:1014900000F0C2FE4FF48060ADF8000003208DF82C
:1014A000020010208DF803006946A14800F0D8FB27
:1014B0004FF40050ADF8000003208DF8020010201A
:1014C0008DF8030069469A4800F0CAFB4FF480701B
:1014D000ADF8000003208DF8020010208DF8030005
:1014E0006946934800F0BCFB1020ADF80000694647
:1014F0008F4800F0B5FB2020ADF8000069468C480D
:1015000000F0AEFB4020ADF800006946884800F0CE
:10151000A7FB0020FFF750FFFFF744FF4FF40050F8
:1015200083490861FFF726FF08BD4FF4005080494A
:101530004861486148614861486148614861486163
:10154000486108617047FEB504467A4800F0C8FE5D
:1015500004B9FEBD642C06D848F6A0454FF4FA60E5
:10156000B0FBF4F609E07448844205D8232573489B
:10157000B0FBF4F086B200E0EBE7701E80B2ADF88D
:101580000400ADF800500020ADF80600ADF80200F0
:101590006946684800F078FF0121664801F096FD31
:1015A0000021644801F060FD01221146614801F00C
:1015B000E2FA01215F4801F0C3FA00BFC9E7002148
:1015C0004FF400625A4B5A6100BF16E000F400422B
:1015D00022B14FF40072564B5A6103E04FF400728F
:1015E000534B1A614FF6FF7202EA40004FF400625B
:1015F0004F4B5A611A614A1CD1B21029E6DB704781
:10160000002100204FF40062494B1A6100BF12E034
:101610004FF6FF7202EA40004FF40062444B5A61F9
:10162000474A12680AB1421C90B24FF40062404B24
:101630001A614A1CD1B21029EADB704710B50024A8
:10164000FFF7DEFF0446204610BD70B50121394882
:1016500001F03CFD4FF4805035494861002512E00F
:10166000FFF7ECFF044637484088642809DA35481C
:101670004188801D20F81140801F4088401C31495E
:101680004880681CC5B2082DEADB4FF48050284919
:101690000861FFF74AFF70BD70B50446012000F0F5
:1016A00043F828484588002000F03EF82548008887
:1016B000A84217D023480188801D30F811002080EF
:1016C000012000F031F81F480088401C80B21D49FD
:1016D0000880642801DB00200880002000F024F846
:1016E000012070BD0020FCE710B50446FFF71DFF88
:1016F0000020144908804880134908801349088055
:101700001149488011494880FFF734FE2046FFF711
:101710001AFF10BD10B50021064801F011FA10BDE6
:1017200010B5FFF792FF10BD80F3108870470000DE
:101730000010014000080040400D030080841E009E
:1017400024012242F20E0020C00F00208C10002045
:1017500010B504466FF0040000F075F9E11704EBD2
:101760005171C1F3C701234A11701046007800EB94
:101770004001C1EBC0104FF6FF7101EAC0001E49E5
:10178000088010BD01461C4A12884A434FF0E023EE
:101790005A6100229A6101221A6100BF4FF0E022D3
:1017A000106900F001021AB100F48032002AF5D06D
:1017B00000224FF0E0231A619A61704701460D4AFA
:1017C00012784A434FF0E0235A6100229A610122C5
:1017D0001A6100BF4FF0E022106900F001021AB157
:1017E00000F48032002AF5D000224FF0E0231A6185
:1017F0009A617047480900204A09002008B54FF453
:10180000A06000F0D1F812208DF8000001208DF8C2
:10181000010000208DF8020001208DF803006846C9
:1018200000F0C7F808BD0000014600BF704700BFC8
:10183000494A128802F04002002AF9D0C2B2464B4F
:101840001B1D1A80704710B586B00446012144F272
:10185000050000F0E1FC4FF40070ADF81400032027
:101860008DF8160018208DF8170005A93B4800F0E8
:10187000F7F94FF48060ADF8140004208DF81700DC
:1018800005A9364800F0ECF925208DF8000003206A
:101890008DF801008DF8020001208DF803006846E4
:1018A00000F087F801940020ADF80800ADF80A00B8
:1018B000ADF80C00ADF810000C20ADF80E0001A939
:1018C000254801F05EFC012240F22551224801F03A
:1018D000F0FC0121204801F0E0FC06B010BD10B57D
:1018E00040F225511C4801F0C9FD10B31A4801F01F
:1018F00045FDC4B21A48007800F08000C8B9184805
:10190000007800F0400060B10A2C03D00020144998
:10191000087020E01248007840F0800010490870FC
:1019200019E00D2C06D10E48007840F040000C491B
:10193000087010E00A48007800F03F0009490C5494
:1019400007480078401C06490870084600783F2880
:1019500001DD0020087010BD003801400008014082
:1019600050090020581100200948804709480047C5
:10197000FEE7FEE7FEE7FEE7FEE7FEE7FEE7FEE73F
:10198000FEE7FEE704480549054A064B704700009C
:10199000FF040008ED000008E81C0020E8220020F9
:1019A000E81E0020E81E002031490143314A116041
:1019B000704770B5002100230F22C47804B32D4C6A
:1019C000246804F4E064C4F5E064210AC1F104036E
:1019D000CA40447804FA03F1847814402143090191
:1019E000254C0678A155047804F01F050124AC406D
:1019F00005786D11AD0005F1E025C5F8004109E05D
:101A0000047804F01F050124AC401C4D06787611C3
:101A100045F8264070BD1A4A0A400243154B1B1F69
:101A20001A60704739B1134A121D12680243114BF4
:101A30001B1D1A6006E00F4A121D126882430D4BEF
:101A40001B1D1A607047042808D14FF0E021096976
:101A500041F004014FF0E022116107E04FF0E02176
:101A6000096921F004014FF0E02211617047000084
:101A70000000FA050CED00E000E400E080E100E089
:101A800080FFFF1F002044490860091D0860091DF0
:101A90000860091D086041483F49143108607047DB
:101AA00000213D498279002A3AD00A46126803682B
:101AB0009A430B461A600A1D126803689A430B1D6D
:101AC0001A60027911440A6803681A430A60324AAC
:101AD0000832126803689A432F4B08331A601A1DA4
:101AE000126803689A432C4B0C331A604279102A0F
:101AF0000ED11A1F126803681A43274B08331A6065
:101B00001A1D126803681A43234B0C331A600DE048
:101B10002149427911440A6803681A430A6005E0C2
:101B2000027911440A6803689A430A6070470021E9
:101B3000016001710C2141710021817170471649CA
:101B4000103109680143144A103211607047014690
:101B50000020114A143212680A400AB1012000E044
:101B6000002070470C49143108607047014600207E
:101B70000022094B1B6803EA0102074B14331B6860
:101B80000B4013B10AB1012000E000207047024968
:101B9000143108607047000000040140FFFF0F008F
:101BA00010B50446CC48844208D10121042000F03D
:101BB0004DFB0021042000F049FB46E0C748844269
:101BC00008D10121082000F041FB0021082000F08D
:101BD0003DFB3AE0C248844208D10121102000F0C8
:101BE00035FB0021102000F031FB2EE0BD4884427F
:101BF00008D10121202000F029FB0021202000F045
:101C000025FB22E0B848844208D10121402000F0A1
:101C10001DFB0021402000F019FB16E0B348844270
:101C200008D10121802000F011FB0021802000F06C
:101C30000DFB0AE0AE48844207D10121801500F077
:101C400005FB0021A01500F001FB10BD10B501211E
:101C5000084600F0FBFA0021012000F0F7FA10BD61
:101C60002DE9F04102460025002600200023002433
:101C7000002791F803C00CF00F0591F803C00CF099
:101C8000100CBCF1000F03D091F802C04CEA05051E
:101C900091F800C0BCF1000F31D0146800202BE097
:101CA0004FF0010C0CFA00F3B1F800C00CEA030687
:101CB0009E4220D183004FF00F0C0CFA03F7BC4377
:101CC00005FA03FC4CEA040491F803C0BCF1280FA8
:101CD00006D14FF0010C0CFA00FCC2F814C00AE067
:101CE00091F803C0BCF1480F05D14FF0010C0CFA7C
:101CF00000FCC2F810C0401C0828D1D31460B1F811
:101D000000C0BCF1FF0F34DD546800202EE000F16C
:101D1000080C4FF0010808FA0CF3B1F800C00CEA07
:101D200003069E4221D183004FF00F0C0CFA03F7FB
:101D3000BC4305FA03FC4CEA040491F803C0BCF16F
:101D4000280F05D100F1080C08FA0CF8C2F814802D
:101D500091F803C0BCF1480F07D100F1080C4FF017
:101D6000010808FA0CF8C2F81080401C0828CED3ED
:101D70005460BDE8F0814FF6FF710180022181704F
:101D80000421C17070470246002093680B400BB1DC
:101D9000012000E0002070470146886880B270474B
:101DA00002460020D3680B400BB1012000E0002068
:101DB00070470146C86880B2704701617047416151
:101DC00070470AB1016100E041617047C16070472E
:101DD0004FF480320A438261816182618269826943
:101DE000704702460020434B18684FF68073184036
:101DF00040EA021008433F4B186070473E49C861F3
:101E00007047F0B50A46002300240021002500F0A9
:101E10000046B6F1004F02D1364EF16901E0354E71
:101E20007168C0F3034583B200F44016B6F5401F55
:101E300008D121F070612F4E766826F070662D4F24
:101E40007E6012E000F48016B6F5801F06D10326EE
:101E500006FA05F4A14341F0706106E0460D360133
:101E600003FA06F6B14341F0706122B1460D360126
:101E700003FA06F6314300F00046B6F1004F02D1F6
:101E80001C4EF16101E01B4E7160F0BD30B50022C7
:101E90008B071C0F0F2303FA04F2164B08338C1028
:101EA00053F824309343134C08348D1044F82530F4
:101EB00023468C1053F824308C07240F00FA04F4C6
:101EC00023430C4C08348D1044F8253030BD0A49AA
:101ED000DC3108607047000000080140000C014040
:101EE000001001400014014000180140001C014096
:101EF0000020014000000140000020420E4908601F
:101F000070470D49486070470B49886070474AF632
:101F1000AA200949086070474CF6CC400649086081
:101F2000704701460020044AD2680A400AB10120E5
:101F300000E000207047000000300040DF480068EB
:101F400040F00100DD49086008464068DC4908406F
:101F5000DA49486008460068DA490840D74908600D
:101F60000846006820F4802008600846406820F495
:101F7000FE0048604FF41F0088607047CF49096831
:101F800021F48031CD4A11601146096821F4802185
:101F90001160B0F5803F03D0B0F5802F0ED106E080
:101FA000C649096841F48031C44A116007E0C34959
:101FB000096841F4A021C14A116000E000BF00BFE0
:101FC000704710B501460022002300204A11012A63
:101FD00002D1BA4C236806E0022A02D1B74C236A28
:101FE00001E0B64C636A01F01F02012494401C40DA
:101FF0000CB1012000E0002010BD38B50020009099
:102000000024002500BF3120FFF7DBFF05460098C4
:10201000401C00900098B0F5A06F01D0002DF2D0C8
:102020003120FFF7CEFF08B1012400E00024204654
:1020300038BD01460020A14A106820F0F80040EAAF
:10204000C10010607047A049086070470246002038
:102050009A4B586820F47C1042EA01031843974BCE
:102060005860704798490866704701460020934AB7
:10207000506820F003000843506070478F48406864
:1020800000F00C007047014600208C4A506820F098
:10209000F00008435060704701460020874A5068AE
:1020A00020F4E06008435060704701460020834AF6
:1020B000506820F4605040EAC1005060704729B178
:1020C0007E4A527A02437D4B5A7204E07B4A527A2E
:1020D00082437A4B5A7270477B49D8310860704707
:1020E00001460020754A506820F440400843506083
:1020F00070470021714A20321170704A82F8201016
:10210000012802D004280AD104E001216B4A2032C0
:10211000117005E00521694A2032117000E000BF0E
:1021200000BF70476949086070476449096A014304
:10213000624A11627047654944390860704730B59A
:1021400000210022002400235C4D6D6805F00C0185
:1021500021B1042905D0082923D105E05C4D056093
:1021600022E05B4D05601FE0544D6D6805F4701270
:10217000524D6D6805F48034022505EB92421CB97E
:10218000544D554305600BE04C4D6D6805F400352A
:102190001DB1504D5543056002E04D4D554305605E
:1021A00002E04B4D056000BF00BF444D6D6805F077
:1021B000F0010909484D6B5C0568DD4045603F4D05
:1021C0006D6805F4E061090A434D6B5C4568DD40CC
:1021D00085603A4D6D6805F46051C90A3E4D6B5CEF
:1021E0004568DD40C560354D6D6805F44041890B9B
:1021F0003A4D6B5CC568B5FBF3F5056130BD29B19F
:102200002E4A526902432D4B5A6104E02B4A52690F
:1022100082432A4B5A61704729B1284A9269024386
:10222000264B9A6104E0254A92698243234B9A61C6
:10223000704729B1214AD2690243204BDA6104E098
:102240001E4AD26982431D4BDA61704729B11B4A8D
:10225000D2680243194BDA6004E0184AD26882431C
:10226000164BDA60704729B1144A12690243134BC6
:102270001A6104E0114A12698243104B1A617047D7
:1022800012494039086070470F49C86470470B49CC
:10229000C87170470948406A40F080700749486239
:1022A000704701460020054A92680A400AB10120A1
:1022B00000E000207047014988727047001002401A
:1022C0000000FFF8FFFFF6FE000042428004424299
:1022D00000127A0000093D00510900206109002028
:1022E00010B50446FE48844208D10121C014FFF70E
:1022F000ADFF0021E014FFF7A9FFC4E0B4F1804F67
:1023000008D101210846FFF7AEFF00210120FFF7A9
:10231000AAFFB8E0F348844208D101210220FFF768
:10232000A2FF00210220FFF79EFFACE0EE488442AE
:1023300008D101210420FFF796FF00210420FFF7B8
:1023400092FFA0E0E948844208D101210820FFF76C
:102350008AFF00210820FFF786FF94E0E4488442CA
:1023600008D101211020FFF77EFF00211020FFF788
:102370007AFF88E0DF48844208D101212020FFF75E
:1023800072FF00212020FFF76EFF7CE0DA488442D4
:1023900008D101214014FFF759FF00216014FFF715
:1023A00055FF70E0D548844209D10121C804FFF7E8
:1023B0004DFF00214FF40020FFF748FF63E0D048B5
:1023C000844209D101210805FFF740FF00214FF4A5
:1023D0008010FFF73BFF56E0CA48844209D1012133
:1023E0004805FFF733FF00214FF40010FFF72EFFE1
:1023F00049E0C548844208D101214020FFF733FF5E
:1024000000214020FFF72FFF3DE0C048844208D163
:1024100001218020FFF727FF00218020FFF723FF05
:1024200031E0BB48844208D101218015FFF71BFF32
:102430000021A015FFF717FF25E0B648844209D117
:1024400001210804FFF702FF00214FF48030FFF75D
:10245000FDFE18E0B048844209D101214804FFF78D
:10246000F5FE00214FF40030FFF7F0FE0BE0AB4823
:10247000844208D101218804FFF7E8FE00214FF4CF
:102480008020FFF7E3FE10BD00220288944B9842A3
:102490000ED0994B98420BD0B0F1804F08D0914BA1
:1024A000984205D0904B984202D0904B984204D16C
:1024B0004FF68F731A404B881A438D4B984207D0C2
:1024C0008C4B984204D04FF6FF431A40CB881A43F6
:1024D00002808B8883850B880385814B98420BD0C3
:1024E000854B984208D08B4B984205D08A4B984236
:1024F00002D08A4B984201D10B7A03860123838252
:10250000704770B5002400220023058C4FF6FE763C
:1025100035400584028C8388048B4FF68F752C40E0
:10252000B51E2C400D882C43751E2A400D892A4368
:102530004D882A436A4DA8420BD06F4DA84208D05F
:10254000744DA84205D0744DA84202D0734DA842E4
:1025500013D14FF6F7752A404D892A434FF6FB7584
:102560002A408D882A434FF6FF652B404FF6FF55D2
:102570002B408D892B43CD892B4383800483CD88C9
:102580008586028470BD70B5002400220023058C6E
:102590004FF6EF7635400584028C8388048B48F62D
:1025A000FF752C404FF6FF452C400D884FF6FF7607
:1025B00006EA05252C434FF6DF752A400D8906EA09
:1025C00005152A434D8806EA05152A43444DA842BD
:1025D00002D0494DA8421DD14FF67F752A404D8942
:1025E0004FF6FF7606EA05152A434FF6BF752A40D7
:1025F0008D8806EA05152A434FF6FF352B404FF22A
:10260000FF752B408D8906EA85052B43CD8906EAA7
:1026100085052B4383800483CD880587028470BDA4
:1026200070B5002400220023058C4FF6FF6635406C
:102630000584028C8388848B4FF68F752C404FF66F
:10264000FC752C400D882C434FF6FF552A400D8910
:102650004FF6FF7606EA05252A434D8806EA05254A
:102660002A431F4DA84202D0234DA8421DD14FF24C
:10267000FF752A404D894FF6FF7606EA05252A4365
:102680004FF6FF352A408D8806EA05252A434EF687
:10269000FF752B404DF6FF752B408D8906EA051519
:1026A0002B43CD8906EA05152B4383808483CD888F
:1026B0008587028470BD70B5002200230024058C3C
:1026C0004EF6FF7635400584038C8488828B48F66D
:1026D000FF752A404FF6FF452A400D8820E0000094
:1026E000002C01400004004000080040000C0040A5
:1026F000001000400014004000340140004C014034
:10270000005001400054014000180040001C0040EF
:1027100000200040004001400044014000480140CA
:102720004FF6FF7606EA05252A434DF6FF752B4046
:102730000D8906EA05352B434D8806EA05352B43FE
:10274000FA4DA84202D0FA4DA84208D14BF6FF75C7
:102750002C408D894FF6FF7606EA85152C43848040
:102760008283CD88A0F84050038470BD828B4FF2E5
:10277000FF331A408283828B4FF6FF7303EA0123F3
:102780001A4382837047F0B50C461546002200219B
:102790000026078C4EF6FF7C07EA0C070784828B25
:1027A000018C4FF6FF7707EA043640F6FF473A40C0
:1027B0004FF6FF7707EA05273A434FF6FF7707EA18
:1027C00003373A43D94FB8420ED0D94FB8420BD055
:1027D000B0F1804F08D0D74FB84205D0D64FB8429D
:1027E00002D0D64FB84206D14DF6FF77394046F4B5
:1027F0008057394305E047F6FF57394044F4805786
:10280000394382830184F0BD828B4FF6F3731A4003
:102810008283828B0A4382837047F0B50C4615464B
:10282000002200210026078C4FF6FF6C07EA0C07F8
:102830000784828B018C4FF6FF7707EA04264FF658
:102840000C773A404FF6FF7707EA03172F433A43D6
:10285000B64FB8420ED0B64FB8420BD0B0F1804F51
:1028600008D0B44FB84205D0B34FB84202D0B34FEE
:10287000B84206D14FF6FF57394046F480773943C6
:1028800005E04FF2FF57394044F4807739438283A3
:102890000184F0BD028B4FF2FF331A400283028B9A
:1028A0004FF6FF7303EA01231A4302837047F0B522
:1028B0000C461546002200210026078C4FF6EF7CBF
:1028C00007EA0C070784028B018C4FF6FF7707EAB3
:1028D000041640F6FF473A404FF6FF7707EA033702
:1028E0003A434FF6FF7707EA05273A438F4FB8423E
:1028F0000ED08F4FB8420BD0B0F1804F08D08D4F23
:10290000B84205D08C4FB84202D08C4FB84206D1A5
:102910004FF6DF77394046F01007394305E04FF6B0
:102920005F77394044F01007394302830184F0BDDA
:10293000028B4FF6F3731A400283028B0A43028321
:102940007047F0B50C46154600220021068C4FF664
:10295000FE773E400684028B018C4FF60C763240A7
:102960007E1C06EA03162E433243704EB0420ED050
:102970006F4EB0420BD0B0F1804F08D06D4EB042D8
:1029800005D06D4EB04202D06C4EB04206D14FF62B
:10299000FD76314044F00106314305E04FF6F5760F
:1029A000314044F00106314302830184F0BD70B52B
:1029B00005460C465D4885420ED05D4885420BD0E9
:1029C000B5F1804F08D05B48854205D05A48854212
:1029D00002D05A48854200D100E000BF208850B99B
:1029E0002389A28861882846FFF7ABFFE188284643
:1029F000FFF79EFF25E0208804280AD12389A288BA
:102A000061882846FFF753FFE1882846FFF742FF19
:102A100017E0208808280AD12389A28861882846DF
:102A2000FFF7FBFEE1882846FFF7EEFE09E0238969
:102A3000A28861882846FFF7A6FEE1882846FFF7AE
:102A400095FE70BD2DE9F04105460C460026012794
:102A5000608808B9022600E00026A088012801D17C
:102A6000022700E001272088A0B92389A288618875
:102A70002846FFF766FFE1882846FFF759FF2389BC
:102A80003A4631462846FFF712FFE1882846FFF70D
:102A900001FF13E02389A28861882846FFF707FF1A
:102AA000E1882846FFF7F6FE23893A463146284654
:102AB000FFF747FFE1882846FFF73AFFBDE8F081BE
:102AC0000A884B881A438B881A43CB881A430B8990
:102AD0001A434B891A438B891A43A0F84420704744
:102AE0004FF6FF71818000210180C1804180017219
:102AF00070470021018041808180C1800181418136
:102B00008181C18170470021018041800121818044
:102B10000021C180018170470021018041808180B6
:102B2000C18001814181818170470000002C0140FA
:102B3000003401400004004000080040000C004048
:102B400021B1028842F00102028004E002884FF6BF
:102B5000FE731A400280704731B1B0F8442042F44D
:102B60000042A0F8442005E0B0F84420C2F30E0271
:102B7000A0F8442070471AB183890B43838102E097
:102B800083898B43838170478182704741EA0203C6
:102B9000A0F8483070471AB183890B43838102E063
:102BA00083898B438381704701894FF6F872114006
:102BB000018170470A46002101894FF68F73194041
:102BC00011430181704730B504460D462946204621
:102BD000FFF7F0FF208940F00700208130BD2DE98C
:102BE000F04104460D4616461F46602D06D13B4671
:102BF000012231462046FFF75AFE05E03B460122FE
:102C000031462046FFF79DFE29462046FFF7D2FFBA
:102C1000208940F007002081BDE8F08130B50C46E6
:102C200000210189C9B24FF6FF7505EA0325154356
:102C300025432943018130BD2DE9F04105460E466B
:102C400017469846002443463A4631462846FFF741
:102C5000E5FF2C894FF6F870044044F007044FF666
:102C60008F70044044F070042C81BDE8F081F0B511
:102C700004460D4616461F463B4632462946204628
:102C8000FFF7CCFF208940F480402081F0BD018512
:102C9000828270470A46002101884FF68F731940DF
:102CA000114301807047F0B50C4615461E460021C1
:102CB000002200230189028B038C4FF6F8773940FC
:102CC00021434FF6FC473A4040F201173A434FF692
:102CD000DD773B404FF6FF7707EA06172F433B436C
:102CE000018102830384F0BD0A460021018B4FF667
:102CF0008F7319401143018370470A460021018BED
:102D000048F6FF7319404FF6FF7303EA0223194395
:102D1000018370470A460021818B4FF68F7319405B
:102D20001143818370470A460021818B48F6FF7367
:102D300019404FF6FF7303EA02231943818370475A
:102D400021B1028842F08002028004E002884FF63E
:102D50007F731A400280704721B1828842F00402DA
:102D6000828004E082884FF6FB731A4082807047AD
:102D700021B1828842F00802828004E082884FF606
:102D8000F7731A408280704721B1828842F00102B5
:102D9000828004E082884FF6FE731A40828070477A
:102DA0000A460021018B4FF6F77319401143018346
:102DB00070470A460021018B4FF2FF7319404FF60E
:102DC000FF7303EA02231943018370470A46002177
:102DD000818B4FF6F77319401143818370470A4680
:102DE0000021818B4FF2FF7319404FF6FF7303EA06
:102DF00002231943818370470A460021018B4FF655
:102E0000FB7319401143018370470A460021018B6F
:102E10004FF6FF3319404FF6FF7303EA02231943BD
:102E2000018370470A460021818B4FF6FB731940DE
:102E30001143818370470A460021818B4FF6FF338F
:102E400019404FF6FF7303EA022319438183704749
:102E50000A460021018B4FF67F731940114301830D
:102E600070470A460021018BC1F30E014FF6FF7334
:102E700003EA02231943018370470A460021818B2C
:102E80004FF67F7319401143818370470A46002132
:102E9000818BC1F30E014FF6FF7303EA022319433E
:102EA000818370470A460021018C4FF6FD7319405B
:102EB0001143018470470A460021018C4FF6F773D5
:102EC00019401143018470470A460021018C4FF6D6
:102ED000DF7319404FF6FF7303EA021319430184AD
:102EE00070470A460021018C4FF67F7319404FF658
:102EF000FF7303EA02131943018470470A46002155
:102F0000018C4FF6FF5319404FF6FF7303EA02237B
:102F10001943018470470A460021018C4FF2FF7368
:102F200019404FF6FF7303EA0223194301847047E7
:102F30000A460021018C4DF6FF7319404FF6FF73CE
:102F400003EA023319430184704730B5002301249A
:102F50008C40A3B2048C9C430484048C02FA01F5D7
:102F6000ADB22C43048430BD30B5002304248C4022
:102F7000A3B2048C9C430484048C02FA01F5ADB224
:102F80002C43048430BD70B503460020002418464D
:102F9000183001258D40ACB21D8CA5431D8409B1AC
:102FA000082909D100EB6100056825F0700505606E
:102FB0000568154305600EE00D1FC5F34E05284456
:102FC000056825F4E045056005684FF6FF7606EADA
:102FD00002263543056070BD21B1028842F002022D
:102FE000028004E002884FF6FD731A4002807047A9
:102FF00021B1028842F00402028004E002884FF608
:10300000FB731A400280704721B1828842F080022F
:10301000828004E082884FF67F731A408280704776
:1030200002884FF6F7731A40028002880A43028032
:10303000704782884FF68F731A40828082880A43D5
:103040008280704702894FF6F8731A400281028924
:103050000A430281704702894FF67F731A4002814A
:1030600002890A43028170478184704781857047D5
:10307000818670470187704781877047A0F84010AC
:10308000704702884FF6FF431A40028002880A43C5
:10309000028070470146888E70470146088F70474E
:1030A0000146888F70470146B1F8400070470146DD
:1030B000888C70470146088D704702460020138AAD
:1030C0000B400BB1012000E000207047CA43028290
:1030D000704730B50246002000230024158A05EA17
:1030E0000103958905EA010413B10CB1012000E048
:1030F000002030BDCA4302827047000010B504466C
:10310000FB48844209D101218803FFF79FF8002181
:103110004FF48040FFF79AF832E0F648844209D134
:1031200001214804FFF79FF800214FF40030FFF71A
:103130009AF825E0F048844209D101218804FFF77C
:1031400092F800214FF48020FFF78DF818E0EB484B
:10315000844209D10121C804FFF785F800214FF40A
:103160000020FFF780F80BE0E548844208D10121F8
:103170000805FFF778F800214FF48010FFF773F887
:1031800010BD2DE9F04786B005460E460024A24644
:1031900000BFA1460027B08900B100BF2F462C8A8E
:1031A0004CF6FF700440F08804432C82AC894EF644
:1031B000F3100440B08831890843718908430443FF
:1031C000AC81AC8A4FF6FF400440B0890443AC8226
:1031D00001A8FEF7B4FFC648874202D1DDF810A06F
:1031E00001E0DDF80CA0A88900F4004040B10AEB32
:1031F000CA0000EB0A1031684900B0FBF1F807E0A3
:103200000AEBCA0000EB0A1031688900B0FBF1F844
:103210006420B8FBF0F004012009642101FB10894F
:10322000A88900F4004040B1322000EBC900B0FB97
:10323000F1F000F00700044308E0322000EB091031
:103240006421B0FBF1F000F00F0004432C8106B0C4
:10325000BDE8F0874FF41651016000218180C180E4
:1032600001810C21418100218181704710B5024606
:103270000020108A4FF2FF0318400B884C8823432C
:103280008C882343CC8823431843108210BD00212F
:10329000018041808180C180704721B1828942F4E0
:1032A0000052828104E082894DF6FF731A408281C8
:1032B0007047F0B50346002400260025002040F6A4
:1032C0006A17B94200D100BF1846C1F3421401F099
:1032D0001F06012707FA06F5012C01D10C3004E086
:1032E000022C01D1103000E014301AB107682F43CE
:1032F000076002E00768AF430760F0BD1AB1838A38
:103300000B43838202E0838A8B4383827047028A65
:103310004FF6F0731A400282028A0A430282704713
:1033200082894FF2FF731A40828182890A43828127
:10333000704721B1828942F00202828104E08289D1
:103340004FF6FD731A4082817047028A4FF6DF7391
:103350001A400282028A0A430282704721B1028A1D
:1033600042F48042028204E0028A4BF6FF731A4064
:1033700002827047C1F30802828070470146888844
:10338000C0F308007047818941F0010181817047D5
:10339000028BD2B20283028B42EA0122028370477F
:1033A000028B02F47F420283028B0A43028370473E
:1033B00021B1828A42F02002828204E0828A4FF6A2
:1033C000DF731A408282704721B1828A42F0100274
:1033D000828204E0828A4FF6EF731A40828270473D
:1033E00021B1828A42F00802828204E0828A4FF68A
:1033F000F7731A408282704721B1828942F40042F9
:10340000828103E08289C2F30E028281704721B17A
:10341000828A42F40062828204E0828A4FF2FF7361
:103420001A4082827047828A4FF6FB731A4082826A
:10343000828A0A438282704721B1828A42F0020264
:10344000828204E0828A4FF6FD731A4082827047BE
:1034500002460020B1F5007F00D100BF13880B4069
:103460000BB1012000E00020704701F40072B2F5BA
:10347000007F00D100BFCA430280704770B502468A
:10348000002400230025002040F66A16B14200D136
:1034900000BFC1F3421501F01F03012606FA03F332
:1034A000012D02D19689334006E0022D02D1168A01
:1034B000334001E0968A33400C12012606FA04F4E8
:1034C0001688344013B10CB1012000E0002070BD1B
:1034D00010B50022002340F66A14A14200D100BFBB
:1034E0000A1201249440A3B2DC43048010BD000002
:1034F000003801400044004000480040004C0040BB
:103500000050004010B50121C802FEF7ACFE0021BA
:103510004FF40060FEF7A7FE10BD0021194A1268A3
:1035200022F4C0710143174A1160704708B50021A9
:1035300000911449096821F07F01009100F07F019A
:10354000009A114300910F4A0099116008BD0120B3
:103550000D490860704700F07F010A4A121F116090
:10356000704740F08001074A121F116070470548FC
:10357000001D0068C0B2704700200249091D0860A4
:1035800070470000042C0040A480054270B504463A
:103590000D4601262A462146F5A002F05FFC00BF39
:1035A000002EFDD170BD70B504460D46164604B11F
:1035B00003E02121F7A0FFF7E9FF05B103E0222195
:1035C000F4A0FFF7E3FF06B103E02321F1A0FFF72A
:1035D000DDFF2660E5606560A560002070BD2DE917
:1035E000F04104460D4690460026002705B103E051
:1035F0003D21E8A0FFF7CAFF04B103E03E21E5A0AA
:10360000FFF7C4FFE06800B103E03F21E1A0FFF74E
:10361000BDFF606800B103E04021DEA0FFF7B6FF08
:10362000A06800B103E04121DAA0FFF7AFFFA66870
:10363000002711E0E06821680144701C06468142C1
:1036400000D8E6686068B04200D107E015F8010BC9
:10365000A1680870A6607F1C4745EBD300BF3846C1
:10366000BDE8F0812DE9F04104460E4617460025DD
:1036700006B103E06621C7A0FFF788FF04B103E0AD
:103680006721C4A0FFF782FFE06800B103E0682172
:10369000C0A0FFF77BFF606800B103E06921BDA017
:1036A000FFF774FFA06800B103E06A21B9A0FFF73B
:1036B0006DFF0EE06068411C6160037829466D1C57
:1036C0007354E068216808446168884201D8E06862
:1036D00060606068A168884204D0BD4202D2206860
:1036E000A842E7D82846BDE8F08170B50446002618
:1036F000002504B103E08821A6A0FFF747FF60681A
:1037000000B103E08921A3A0FFF740FFA06800B14A
:1037100003E08A219FA0FFF739FF666808E06D1C6F
:10372000E06821680144701C0646814200D8E668C2
:10373000A068B04202D02068A842F0D8284670BDE8
:103740002DE9F05F04468A4693469946B9F1000F89
:1037500000D003E0AE218FA0FFF718FF04B103E013
:10376000AF218CA0FFF712FFE06800B103E0B021A9
:1037700088A0FFF70BFF606800B103E0B12185A0CE
:10378000FFF704FFA06800B103E0B22181A0FFF7BA
:10379000FDFE656827680BE02878504500D10EE0F3
:1037A000E06821680144681C0546814200D8E5684C
:1037B000A068A84203D0381EA7F10107ECD100BFD2
:1037C000A068A84202D10020BDE8F09F781C08B98B
:1037D0000020F9E72E46E06821680144701C064687
:1037E000814200D8E6680BE03078584500D10EE001
:1037F000E06821680144701C0646814200D8E668F2
:10380000A068B04203D0381EA7F10107ECD100BF79
:10381000A068B04201D10020D6E7781C08B900208A
:10382000D2E7E06821680144701C0646814200D856
:10383000E6682068C71B4FF000080CE015F8012B64
:10384000404608F1010809F80020E06821680844B2
:10385000A84200D8E568B54209D00A98804506D24A
:103860002068404503D9381EA7F10107E6D16660FC
:103870004046A9E72DE9F05F0446894692469B46FB
:10388000BAF1000F00D003E0EC2142A0FFF77EFE6A
:1038900004B103E0ED213FA0FFF778FEE06800B13E
:1038A00003E0EE213BA0FFF771FE606800B103E08A
:1038B000EF2138A0FFF76AFEA06800B103E0F02115
:1038C00034A0FFF763FE656826680BE0287848455A
:1038D00000D10EE0E06821680144681C0546814281
:1038E00000D8E568A068A84203D0301EA6F1010602
:1038F000ECD100BFA068A84202D10020BDE8F09F33
:10390000701C08B90020F9E72F46E06821680144DF
:10391000781C0746814200D8E7680BE038784845B4
:1039200000D10EE0E06821680144781C074681421E
:1039300000D8E768A068B84203D0301EA6F101069F
:10394000ECD100BFA068B84201D10020D6E7701CBE
:1039500008B90020D2E7E06821680144781C0746D6
:10396000814200D8E7682068861B4FF000082CE0F1
:1039700077726F6E6720696E666F726D6174696FC2
:103980006E20CEC4BCFE3A257320B5DA2564D0D0B3
:103990000D0A00002E2E5C53595354454D5C507552
:1039A000626C69635C51756575652E63000000008B
:1039B00015F8012B404608F101080AF80020E068DC
:1039C00021680844A84200D8E568BD4208D0D8451F
:1039D00006D22068404503D9301EA6F10106E7D182
:1039E000B8F1020F0ADC4FF00008681E0546E168D6
:1039F000884203D2E06821680844451E656040465D
:103A00007CE72DE9F05F0446894690469A46B8F176
:103A1000000F00D005E040F22D11AFF28800FFF753
:103A2000B5FD04B105E04FF49771AFF29800FFF7D0
:103A3000ADFDE06800B105E040F22F11AFF2AC003F
:103A4000FFF7A4FD606800B105E04FF49871AFF294
:103A5000BC00FFF79BFDA06800B105E040F231110A
:103A6000AFF2D000FFF792FD656826680BE028787A
:103A7000484500D10EE0E06821680144681C054615
:103A8000814200D8E568A068A84203D0301EA6F1A4
:103A90000106ECD100BFA068A84202D10020BDE819
:103AA000F09F701C08B90020F9E7AB46E068216878
:103AB00001440BF101008346814201D8D4F80CB0D7
:103AC0006568266800270CE02A7838467F1C08F8CD
:103AD0000020E06821680144681C0546814200D846
:103AE000E5685D4505D0574503D2301EA6F10106B5
:103AF000EAD165603846D2E72DE9F84F0446894699
:103B00009246984600200090B8F1000F00D005E0E2
:103B10004FF4B171AFF28410FFF738FD04B105E046
:103B200040F26311AFF29410FFF730FDE06800B18E
:103B300005E04FF4B271AFF2A410FFF727FD606803
:103B400000B105E040F26511AFF2B810FFF71EFDBD
:103B5000A06800B105E04FF4B371AFF2C810FFF7F1
:103B600015FD6568266810E00098814503D1287826
:103B7000504500D110E028780090E06821680144A9
:103B8000681C0546814200D8E568A068A84203D0B9
:103B9000301EA6F10106E7D100BFA068A84202D1FD
:103BA0000020BDE8F88F701C08B90020F9E7AB468B
:103BB000E068216801440BF101008346814201D88D
:103BC000D4F80CB06568266800270CE02A783846DF
:103BD0007F1C08F80020E06821680144681C054645
:103BE000814200D8E5685D4506D00A98874203D235
:103BF000301EA6F10106E9D165603846D1E72DE90E
:103C0000F04104460E4617461D4604B105E040F259
:103C10009711AFF28020FFF7B9FC06B105E04FF431
:103C2000CC71AFF29020FFF7B1FC07B105E040F294
:103C30009911AFF2A020FFF7A9FC05B105E04FF400
:103C4000CD71AFF2B020FFF7A1FC2560B7FBF5F016
:103C5000606026610020A060E060BDE8F0812DE991
:103C6000F04104460D46164637464FF0000804B1B1
:103C700005E040F2B311AFF2E420FFF787FC2069C2
:103C800000B105E04FF4DA71AFF2F820FFF77EFCE7
:103C900005B105E040F2B511AFF20830FFF776FC50
:103CA000D4F80C8000271AE008F101008046616812
:103CB000884201D34FF00008A068404500D110E0D1
:103CC0002169E368D4F800C003FB0C102268294680
:103CD00002F02BFA20680544C4F80C807F1CB74220
:103CE000E2D300BF3846BDE8F0812DE9F04104463B
:103CF0000D461746002604B105E040F2DD11AFF293
:103D00006C30FFF743FC206900B105E04FF4EF7120
:103D1000AFF28030FFF73AFC05B105E040F2DF1169
:103D2000AFF29030FFF732FC14E02069A368D4F8BA
:103D300000C003FB0C012268284602F0F6F9206857
:103D40000544761CA068401CA0606168884201D3CD
:103D50000020A060A068E168884204D06068B0429A
:103D600001D9BE42E1D33046BDE8F08170B50446CA
:103D70000025002604B105E040F2FD11AFF2EC3061
:103D8000FFF704FC206900B105E04FF4FF71AFF2CA
:103D9000FC30FFF7FBFBA66806E06D1C701C0646B6
:103DA0006168884200D30026E068B04202D06068B3
:103DB000A842F2D8284670BD08B54FF4A062674902
:103DC0006748FFF7F0FB4FF4A06266496648FFF7CB
:103DD000EAFB01210802FEF71FFA4FF40060ADF87C
:103DE000000003208DF8020010208DF803006946C2
:103DF0005E48FDF735FF4FF48020FDF7C8FE4FF415
:103E000080205B49086008204871012088710846BD
:103E1000FDF746FE08BD10B50020FEF75DF9012153
:103E2000C805FEF706FA10BD032052490860704726
:103E30005148817A19B105214E4A116002E00121F1
:103E40004C4A1160704708B514208DF8000002201C
:103E50008DF8010000208DF8020001208DF803008C
:103E60006846FDF7A6FD2A208DF8000000208DF899
:103E700001006846FDF79DFD08BD10B504462CB94C
:103E80004FF400613948FDF79AFF04E04FF40061F8
:103E90003648FDF792FF10BD10B5FFF78DFFFFF715
:103EA000BAFFFFF7D0FF01F0A9F910BD70B50446C5
:103EB0000D462A4621462A48FFF7D4FB70BD70B54F
:103EC00004460D462A4621462548FFF788FB70BD6B
:103ED00070B504460D462A4621462348FFF7C2FB2B
:103EE00070BD70B504460D462A4621461E48FFF7B0
:103EF00076FB70BD30B50B46002100BF16E00A24EA
:103F0000B4EB107F05D9302404EB107403F8114092
:103F100005E0412404EB10740A3C03F81140000151
:103F200000254C00641C1D554C1CE1B29142E6DB9F
:103F300030BD70B511480468001D0568001D066895
:103F4000344454B108220E492046FFF7D3FF04221F
:103F50000B4910312846FFF7CDFF70BDC811002076
:103F6000A8110020C8160020B81100200020014030
:103F70006C0900207C0A0020681C0020E8F7FF1F65
:103F80007609002010B500242B480078012819D1AB
:103F900040212A48FFF79CFF84B2002C0FDD224607
:103FA000C021264801F0E6FA2146012001F043FD38
:103FB000012001F0C7FB00202149086002E0002039
:103FC0001D49087010BD10B51E49032001F029FFDE
:103FD00084B221461B48FFF772FF032001F0CAFBA1
:103FE00010BD10B5002418480068052822D11248D9
:103FF0000078F8B912490868411C114A1160052877
:1040000018D100201146086040210C48FFF760FFDE
:1040100084B2002C0EDD2246C021084801F0AAFA25
:104020002146012001F007FD012001F08BFB01205A
:104030000149087010BD00009C090020C81B002029
:10404000A0090020081C00207C0A002010B588B0C0
:10405000002469480068694908800846008800F41F
:10406000007067490988084050B14FF6FF50624917
:10407000086064480078401C62490870FFF7B1FF8F
:104080005E48008800F400405D490988084008B196
:1040900001F0D2F85948008800F480605849098836
:1040A000084030B14FF6FF30534908605649486820
:1040B00080475248008800F4005051490988084060
:1040C00018B14DF6FF704C4908604C48008800F468
:1040D00080504B490988084030B14EF6FF70464980
:1040E0000860002000F071FA4448008800F4006085
:1040F00043490988084060B14448007810B100F095
:10410000DEF902E0022000F060FA4FF2FF703A4957
:1041100008603A48008800F48070394909880840EE
:10412000002866D04FF6FF6033490860081D00681C
:1041300000F40040002856D035480068401C34493F
:10414000086008460068032850D92B48001F006803
:1041500000F00800002849D12748001F006880B2FD
:104160002C490860002408E02B4901EB8400D0F8BA
:10417000000C80B24DF82400641C082CF4D32548B0
:10418000006840F00100234908600846006880B2DA
:104190001949091F08601F48006820F001001D49E7
:1041A00008600846006880B21349091F086000BF14
:1041B0001148006800F480600028F9D04FF6FF3005
:1041C0000D490860002408E05DF8240080B2124A1E
:1041D00002EB8401C1F8000C641C082CF4D300200D
:1041E0000B49086002E0002009490860072000F040
:1041F000ECF908B010BD0000445C0040A4090020A8
:104200009A0A0020A6090020F8090020800A002050
:10421000A8090020AC0900200050004010B5FFF7AD
:1042200015FF10BD10B54FF48020FDF7B0FC10BD98
:1042300010B5FFF77EFE002082490968887200F001
:1042400015F901F0C9FD00207F49086010BD10B5C7
:1042500000207C49096888727C48C07979490968DE
:104260004872002077490968C87201F0CFF94FF40D
:104270000071002001F0E4F91021002001F0F9F9AB
:104280004021002001F0B3FB8021002001F0A3FBBE
:10429000002001F0ABFA6E4890F82C10002001F0DD
:1042A000ECFB002001F066FA0021012001F0C8F9C2
:1042B000C021012001F08FFB2021012001F0D9F95C
:1042C0000021012001F0F3F94FF4C061022001F058
:1042D000B7F94FF48071022001F07DFB002102202C
:1042E00001F0E5F92021022001F0C3F900210320AB
:1042F00001F0A6F94FF48871032001F078FB40210A
:10430000032001F0BAFB4FF44051032001F0CFF934
:104310000021032001F0ADF9002000F0E0FE0120B3
:104320004949086010BD4B48817A11B10521464AC0
:10433000116070470420444908607047464800787F
:10434000202802D100204449087070477047014678
:1043500029B908203B4A12681082002070473F4864
:10436000FCE7014629B90820364A1268108200206D
:1043700070473A48FCE770B504460025212C09D166
:1043800030480068007800F07F00212810D1AFF29B
:104390002D050DE0202C0BD12A480068007800F094
:1043A0007F00212801D1AFF2590520202A49087049
:1043B0000DB9022070BD23480068856100212148A5
:1043C000006841820020A8470020F3E701461D480D
:1043D0000068007800F07F00212807D1022901D170
:1043E00000207047222901D10020FAE70220F8E7D7
:1043F00010B504461A49204600F067FB10BD10B501
:1044000004461849204600F060FB10BD70B5054613
:104410000C480068C478042C01DD002070BD1248EF
:1044200000EBC401284600F050FBF7E702460029E4
:1044300001DD02207047012A01DD0220FAE7002099
:10444000F8E70000900A00207C0A00207272000841
:10445000F8090020681C0020E8090020EC09002071
:104460004C0A0020540A00205C0A002010B50120EC
:10447000FFF703FD0124854804600020844908807B
:1044800008460088814908600020091D08604FF433
:10449000E0507F490880084600887C490860002079
:1044A00010BD10B50120794908600020091D086081
:1044B000FFF7E3FC032075490860002010BD38B504
:1044C0000021002200230093704B1B6898B200BFAC
:1044D00009E0704C04EB8103D3F8003C9BB26E4CB6
:1044E00044F82130491C0829F3D340F48060674B1D
:1044F000186040F00100186020F00100186000BF53
:10450000624B1B1D1B6803F48063002BF8D04FF631
:10451000FF335E4C241D2360002109E05E4B53F8FD
:1045200021309BB25B4D05EB8104C4F8003C491C73
:104530000829F3D340F00800544B18601B6898B268
:1045400040F00400514B1860544B1B680093534BD0
:104550001A6822F0030242F001021A60504B1B68F5
:1045600043F004034E4C2360484B1B1D1B6803F4AF
:1045700080532BB923461B6823F00403236014E007
:104580004EF6FF73414C241D2360231F1B6898B215
:1045900020F00800231F1860404C009B2360404B14
:1045A0001B6823F004033E4C236038BD10B5374828
:1045B000006884B224F0040434480460FFF738FC37
:1045C0004FF43F403149086010BD70B50546072DD6
:1045D00001D0344805703348007808284ED2DFE80F
:1045E00000F004111A202B384E4F2F48006828B9CC
:1045F000FFF7DCFF06202B49087002E0052029495F
:10460000087041E0FFF7D2FF04202649087001201E
:104610002549086038E002202249487003200870CC
:1046200032E020484078401E1E49487008464078D5
:1046300008B90420087027E01448006884B244F0E8
:104640001004124804600520164908700A204870BA
:104650001AE014484078401E1249487008464078D5
:1046600058B90A48006884B224F01004074804606E
:104670000620087000200C49086005E000BF00BF5C
:1046800006200849087000BF00BF70BD405C0040B4
:104690009A0A002000500040481C00200070004092
:1046A00010ED00E0810A0020840A002010B50446C5
:1046B0002CB90120F64909680882002010BDF5498F
:1046C000096808688047F24800680A30F6E710B5C4
:1046D000EF480068C078F0494978884213DCEC481C
:1046E0000068807878B9EA480068808858B9E84856
:1046F0000068C078E64909688872E6490968486830
:104700008047002010BD0220FCE710B504462CB9FC
:104710000120DF4909680882002010BDDD490968D1
:1047200088688047DA4800680C30F6E710B5D84B47
:104730001B68D978D64B1B685879D84B1B689A6987
:1047400090470446D2480068807AE8B13CB9D04826
:104750000068007918B9CE480068807808B1022056
:1047600010BD8CB9CB490968C8688047C848006843
:104770004079C7490968C872C5480068C078C4490B
:10478000096808730020EBE70220E9E710B504464A
:104790002CB90220BE4909680882002010BD002003
:1047A000BF490880BA480068007800F07F0018BB55
:1047B000B7490968487A00F0200131B1B849097851
:1047C00041F00201B64A117005E0B549097801F0DF
:1047D000FD01B34A117000F0400131B1B0490978D0
:1047E00041F00101AE4A117005E0AD49097801F0D0
:1047F000FE01AB4A11703AE0A5480068007800F06D
:104800007F00012801D1A648C8E7A14800680078C8
:1048100000F07F00022828D19D4A1268517901F0EA
:104820000F0001F080027AB19E4B03EB8002D2F8B8
:10483000002C02F03002102A16D1994A127842F068
:104840000102974B1A700FE0964B03EB8002D2F8EF
:10485000002C02F44052B2F5805F05D1904A1278E4
:1048600042F001028E4B1A7001E0002096E7894960
:104870000968086980478A4890E72DE9F04784482D
:104880000068007800F07F08B8F1000F0AD1804876
:104890000068407A00F0DF007D4909684872002016
:1048A000BDE8F087B8F1020F7ED1794800684088F2
:1048B00018B977480068007908B10220F0E7DFF8FE
:1048C000D89173480068477927F080052C467048D6
:1048D0000068407900F0800038B1724901EB840033
:1048E000D0F8000C00F0300606E06E4901EB8400C1
:1048F000D0F8000C00F4405699F80000A84204D902
:104900001EB163480068807A08B90220C8E707F042
:10491000800080B1634901EB8400D0F8000C00F006
:10492000300010284BD1E0B201F01DF8E0B2302188
:1049300000F09FFE43E05B4901EB8400D0F8000CDF
:1049400000F44050B0F5805F39D1E4B9564A92F88E
:104950002C10E0B201F091F8524A02EB8401D1F838
:10496000001C4BF68F7201EA020080F4805080F444
:10497000005040F4004141F080014A4B03EB8402B7
:10498000C2F8001C1BE0E0B200F0D5FF454A02EB84
:104990008401D1F8001C4BF68F7201EA020080F40A
:1049A000805080F4005000E00FE040F4004141F0FE
:1049B00080013C4B03EB8402C2F8001C00BF354968
:1049C00009684869804700206AE700BF022067E75E
:1049D0002DE9F0412E480068467926F080073C46D4
:1049E0002B480068407900F0800038B12D4901EB78
:1049F0008400D0F8000C00F0300506E0294901EBF6
:104A00008400D0F8000C00F4405523480078A04200
:104A100008D91F480068408820B91DB11C480068AB
:104A2000807A10B90220BDE8F08106F08000A0B1C4
:104A30001C4A02EB8401D1F8001C48F6BF7201EA5F
:104A4000020080F0100040F4004141F08001154B5D
:104A500003EB8402C2F8001C14E0124A02EB84014A
:104A6000D1F8001C4BF68F7201EA020080F48050EE
:104A700040F4004141F080010A4B03EB8402C2F88C
:104A8000001C00BF03490968886980470020CAE705
:104A9000900A00209C0A0020F4090020940A0020BB
:104AA000880A002000500040F809002010B5F7489F
:104AB0000068407A40F02000F44909684872F449DF
:104AC0000968C8698047002010BD10B50246EF484C
:104AD0000068438A32B98888C01AEC4C2468208266
:104AE000002010BD08681844FBE72DE9F041E748B5
:104AF000006800F110042688A068C0B1BEB1A58886
:104B0000B54200D93546A8B2A16888470746208833
:104B1000401B2080608828446080002000F07FFFD8
:104B20008046AAB24146384600F03EFD00BF2088CC
:104B300050B14FF44050D74908800021084600F09A
:104B40007AFF3020D44908802088A188884204DB7D
:104B50000320CE490968087218E02088002804DD87
:104B60000520CA490968087210E0208870B906203B
:104B7000C649096808720021C848006880B2801CD4
:104B8000C74A42F810103020C3490880BDE8F081C0
:104B90002DE9F047BD48006800F110052E88BB489C
:104BA0000068077AD6B9042F18D1BE4800780128CA
:104BB0000FD10021B948006880B2801CB84A42F881
:104BC00010103020B449088000BF0020B54908709B
:104BD00003E007271020B049088027E0AC88A642F0
:104BE00001D8042000E002200746B44200D9344630
:104BF000A0B2A96888478046002000F005FF8146E2
:104C0000A2B24946404600F0B5FCA1B2002000F037
:104C100012FF2888001B2880688820446880302084
:104C20009D49088000029B49088000BF9749096898
:104C30000F72BDE8F08770B502269448006844788A
:104C400092480068007800F07F00002844D1092CC9
:104C500003D1FFF73CFD06465FE0052C14D18B48DD
:104C60000068C0787F280BDC88480068807838B9F5
:104C700086480068808818B984480068807A08B13E
:104C8000082565E0002648E0032C0ED17F48006827
:104C9000C078012807D17D480068808818B9FFF7DF
:104CA00005FF064639E0022637E0012C35D177486A
:104CB0000068C07801280DD174480068808848B920
:104CC00072480068407A00F0200018B1FFF7D5FD67
:104CD000064622E0022620E06C480068007800F0DA
:104CE0007F00012805D10B2C17D1FFF71FFD0646C9
:104CF00013E066480068007800F07F0002280BD1BE
:104D0000012C03D1FFF7B9FD064606E0032C04D1C0
:104D1000FFF75EFE064600E002264EB1E0B2624AB0
:104D20001268516988470646032E01D109250FE014
:104D30000EB108250CE0062500215848006880B215
:104D4000801C574A42F8101030205349088000BF99
:104D50004E4909680D7270BD2DE9F84F4B48006847
:104D600045780027BA46062D1BD1484800680078D0
:104D700000F07F00002813D1444909688878012891
:104D800003D149490968CF690AE0022803D146499D
:104D900009680F6A04E0032802D1434909684F6A91
:104DA000ADE0002D67D1394800684088002862D105
:104DB00036480068C08802285DD134480068007910
:104DC000002858D131480068007800F07F0030B9E1
:104DD0002E480068808810B9AFF24F678FE02B48EB
:104DE0000068007800F07F00012811D12749096888
:104DF00048792D4909688A690021904700287ED1A9
:104E000022480068807A002879D0AFF27F6776E088
:104E10001E480068007800F07F0002286FD11B4810
:104E20000068407900F00F0618480068407900F0EB
:104E3000700916480068407900F0800038B11B49BD
:104E400001EB8600D0F8000C00F0300806E01749AE
:104E500001EB8600D0F8000C00F4405814480078AC
:104E6000B0424CD9B9F1000F49D1B8F1000F46D08A
:104E7000AFF2E76743E0082D1CD1044800680078D2
:104E800000F07F00D8BBAFF2DB7738E0900A00205B
:104E90009C0A0020A00A0020A20A0020505C0040CA
:104EA000006000408A0A0020940A00200050004060
:104EB000F40900200A2D22D1C5480068007800F0CE
:104EC0007F0001281BD1C2480068807AB8B1C04871
:104ED0000068408898B9BE480068007978B9BC4835
:104EE0000068C08801280AD1B94909684879B949D8
:104EF00009688A690021904708B9AFF2F17757B184
:104F0000B3480068A0F812A0B1480068876100208B
:104F1000B84700240FE0AE4A12685078AD4A1268D4
:104F2000116988470446032C05D10920A84909685E
:104F30000872BDE8F88FA6480068008A4FF6FF7136
:104F4000884204D10920A24909680872F1E7022CBD
:104F500003D09F480068008A20B908209C4909684E
:104F60000872E6E79A480068007800F08000E0B335
:104F700097480068C088009095480068008A0099AA
:104F8000884204D9924900980968088223E0904831
:104F90000068008A8E490968C98888421BDA8C48F3
:104FA0000068008A8B49096891F82C10884203DA5E
:104FB0000020894908700EE085480068008A85490C
:104FC000096891F82C1090FBF1F201FB120010B966
:104FD0000120814908707F48006890F82C107C48B7
:104FE00000688182FFF7D4FD07E0FFE703207849DE
:104FF0000968087200037949088000BF99E710B575
:10500000774890F82C10002000F037FD70480068B9
:10501000007A082805D140027049088010207149A3
:1050200008806B480068007A092801D1012010BD72
:105030000020FCE738B501246B48006880B2001DF1
:105040006A4931F8100080B201EB400000906048DE
:105050000068007A092832D0009800785C49096815
:1050600008700098401C0090009800785849096822
:1050700048700098401C0090009800EB440000909D
:10508000009931F8020B009100F0A0FE5049096828
:105090004880009800EB44000090009931F8020B22
:1050A000009100F093FE4A4909688880009800EB5F
:1050B000440000900098008845490968C880012094
:1050C00043490968087242480068C08810B9FFF770
:1050D000B2FD01E0FFF740FEFFF791FF38BD30B5AC
:1050E0000146434B1A78002014E00306414C04EBC0
:1050F0009353D3F8003C48F68F74234048F2800461
:105100002343C4B2234304063A4D05EB9454C4F838
:10511000003C401C9042E8D341F08003324C241FF5
:10512000236030BD10B52A480068047A022C01D0F3
:10513000042C05D1FFF72CFD25480068047A1CE0FB
:10514000062C19D122480068407805280ED1204845
:105150000068007800F07F0040B91D490968C878F0
:10516000FFF7BDFF24490968086A804719490968A3
:1051700088688047082400E00824154909680C72F3
:10518000FFF73DFF10BD10B511480068047A022CEE
:1051900001D0042C01D1082412E0032C01D0052CED
:1051A00005D1FFF7A2FC0A480068047A08E0072C42
:1051B00005D108490968C8688047082400E0082428
:1051C000034909680C72FFF71AFF10BD7047000011
:1051D000900A0020940A00208A0A0020A00A0020D9
:1051E000F8090020A20A0020505C00400060004046
:1051F000F4090020005000409C0A002010B5084827
:1052000008490860022009680872074807490860D1
:10521000074808490860054909680868804710BDC3
:10522000681C0020900A0020F8090020940A002041
:10523000280A00209C0A002008B50020009022E1E6
:10524000C448008800F00F00C34908700846007881
:1052500000287CD1C1480068C14908800846008800
:1052600000F03000BF490880BD48008800F440507D
:10527000BB490880B94909684BF6BF7201EA0200D0
:1052800080F4005080F0200040F4004141F08001A3
:10529000B24A1160AF48008800F0100090BB104681
:1052A000006848F60F71084011460860FFF73AFFA2
:1052B000AA4909684BF6BF7201EA0200A8490988A9
:1052C00001F4805109B180F48050A549098801F4A6
:1052D000005109B180F40050A249098801F0100181
:1052E00009B180F010009F49098801F0200109B13F
:1052F00080F0200081B241F4004141F08001974AE2
:10530000116008BDFFE79548006880B20090BDF8C5
:10531000000000F40060B0B390480068C0F30E00D5
:1053200048F68F7108408D490860FFF783FE8B496E
:1053300009684BF6BF7201EA02008949098801F445
:10534000805109B180F480508549098800E056E019
:1053500001F4005109B180F400508249098801F03C
:10536000100109B180F010007E49098801F0200188
:1053700009B180F0200081B241F4004141F0800188
:10538000764A1160BDE7FFE7BDF8000000F4004079
:10539000002878D071480068C0F30E0048F68F717D
:1053A00008406E490860FFF7EEFE6C4909684BF64D
:1053B000BF7201EA02006A49098801F4805109B10B
:1053C00080F480506649098801F4005109B180F4E5
:1053D00000506449098801F0100109B180F0100003
:1053E0006049098801F0200109B180F0200081B2F4
:1053F00041F4004141F08001584A116081E756486C
:105400000078594901EB8000D0F8000C80B2009080
:10541000BDF8000000F40040C0B14F48007801EB37
:105420008000D0F8000CC0F30E0048F68F710840E1
:10543000494909784C4A02EB8101C1F8000C464900
:105440000978491E494A52F821008047BDF80000FA
:1054500000F08000B8B140480078434901EB80007B
:10546000D0F8000C48F60F7108403B4909783E4AD5
:1054700002EB8101C1F8000C37490978491E3C4A0A
:1054800052F82100804735484430006880B23149E5
:10549000088000F4004000287FF4D2AE00BF30E75F
:1054A00010B500244AE047F6FF702C4944310860EB
:1054B0002848008800F00F00274908700846007847
:1054C000294901EB8000D0F8000C84B204F40040BC
:1054D000C8B12148007801EB8000D0F8000CC0F37F
:1054E0000E0048F68F7108401B4909781E4A02EBEE
:1054F0008101C1F8000C18490978491E1B4A52F86D
:10550000210080471AE004F08000B8B1124800780A
:10551000154901EB8000D0F8000C48F60F710840E7
:105520000D490978104A02EB8101C1F8000C0A49C3
:105530000978491E0E4A52F8210080470748443036
:10554000006880B20349088000F400400028AAD116
:1055500010BD0000A40900208C0A0020005C00405F
:10556000A00A0020A20A002000500040CC09002020
:10557000B0090020F0B5144604F1010C4FEA6C07A5
:10558000DFF848C00CEB41033D460AE00678401CBA
:1055900090F800C046EA0C2223F8022B9B1C401C0A
:1055A0006D1E002DF2D1F0BDF0B5561C7510074EE2
:1055B00006EB41042B4605E034F8047B20F8017B20
:1055C000401C5B1E002BF7D1F0BD000000600040C6
:1055D000FA4908607047F948006880B27047F74997
:1055E000091D08607047F548001D006880B27047CB
:1055F000F2480830006880B27047F0490C3108600A
:105600007047EE480C30006880B270474FF6F87172
:105610000140EA4A103211607047E84810300068D3
:1056200080B27047E64B03EB8002C2F8001C704763
:105630000146E34A02EB8100D0F8000C80B27047CB
:1056400010B5DF4B03EB8002D2F8002C48F68F1325
:105650001A400A43DA4C04EB8003C3F8002C10BD57
:105660000146D74A02EB8100D0F8000C00F4C0607C
:10567000704730B5D24C04EB8003D3F8003C48F6B9
:10568000BF7403EA040201F010030BB182F01002B0
:1056900001F020030BB182F0200242F4004343F0FA
:1056A0008003C74D05EB8004C4F8003C30BD30B525
:1056B000C34C04EB8003D3F8003C4BF68F7403EA31
:1056C000040201F480530BB182F4805201F40053C0
:1056D0000BB182F4005242F4004343F08003B84D12
:1056E00005EB8004C4F8003C30BD30B503460C46E1
:1056F0001846FFF79DFF0546012C07D125F4805081
:10570000AF4A02EB8301C1F8000C08E0022C06D17D
:1057100025F01000AA4A02EB8301C1F8000C30BD4D
:105720000146A74A02EB8100D0F8000C00F03000DF
:1057300070470146A24A02EB8100D0F8000C00F449
:105740004050704710B59E4B03EB8002D2F8002CFE
:1057500048F6BF7302EA030181F0100181F02001D5
:1057600041F4004242F08002954C04EB8003C3F800
:10577000002C10BD10B5924B03EB8002D2F8002C28
:105780004BF68F7302EA030181F4805181F40051DA
:1057900041F4004242F08002894C04EB8003C3F8DC
:1057A000002C10BD864A02EB8001D1F8001C41F4A8
:1057B000807148F68F72114048F280021143804B8D
:1057C00003EB8002C2F8001C70477D4A02EB8001A7
:1057D000D1F8001C48F68F62114048F28002114354
:1057E000774B03EB8002C2F8001C7047744A02EB4F
:1057F0008001D1F8001C48F68F62114048F2800207
:1058000011436F4B03EB8002C2F8001C70476C4AD7
:1058100002EB8001D1F8001C41F4807148F68F72D0
:10582000114048F280021143654B03EB8002C2F83D
:10583000001C7047624A02EB8001D1F8001C41F461
:10584000807148F68F72114048F2800211435C4B20
:1058500003EB8002C2F8001C7047594A02EB80013A
:10586000D1F8001C48F68F62114048F280021143C3
:10587000534B03EB8002C2F8001C70470146504AAC
:1058800002EB8100D0F8000C00F03000102801D1AC
:10589000012070470020FCE70146494A02EB8100E5
:1058A000D0F8000C00F44050B0F5805F01D1012029
:1058B00070470020FCE7424A02EB8001D1F8001C4F
:1058C000C1F30E0148F68F7211403D4B03EB80028D
:1058D000C2F8001C70473A4A02EB8001D1F8001C64
:1058E00048F60F721140364B03EB8002C2F8001CE1
:1058F0007047334A02EB8001D1F8001C48F68F72E2
:1059000011404CF2800211432D4B03EB8002C2F890
:10591000001C70472A4A02EB8001D1F8001C48F6AF
:105920008F72114048F2C0021143254B03EB8002F5
:10593000C2F8001C7047224A02EB8001D1F8001C1B
:1059400001F4804171B102EB8001D1F8001C48F6EE
:105950008F7211404CF280021143194B03EB80020D
:10596000C2F8001C7047164A02EB8001D1F8001CF7
:1059700001F0400171B102EB8001D1F8001C48F642
:105980008F72114048F2C00211430D4B03EB8002AD
:10599000C2F8001C704710B5094B03EB8002D2F827
:1059A000002C48F68F731A4048F280031A430A43CA
:1059B000034C04EB8003C3F8002C10BD405C004096
:1059C000005000400146FC4A02EB8100D0F8000C78
:1059D00000F00F00704710B54A105200F74B1B68DB
:1059E0009BB203EBC003F64C44F8132010BD10B576
:1059F0004A105300F14A126892B202EBC002121D23
:105A0000EF4C44F8123010BD0146EC48006880B2FB
:105A100000EBC100EA4A32F8100080B2704701463C
:105A2000E648006880B200EBC100001DE44A32F88D
:105A3000100080B27047E14A126892B202EBC002D5
:105A4000921CDF4B43F81210704702463E290BDDD3
:105A5000481101F01F030BB9431E98B24FF40043E5
:105A600043EA8023136007E0481001F001030BB103
:105A7000431C98B283021360704710B50246CF48AA
:105A8000006880B200EBC200801DCD4C04EB4003E7
:105A90003E290BDD481101F01F040CB9441EA0B2D1
:105AA0004FF4004444EA80241C6007E0481001F0F1
:105AB00001040CB1441CA0B284021C6010BD01465C
:105AC000BE48006880B200EBC100801CBC4A32F8BE
:105AD0001000C0F3090070470146B848006880B262
